{
  "_format": "hh-sol-artifact-1",
  "contractName": "BalanceChecker",
  "sourceName": "contracts/BalanceChecker.sol",
  "abi": [
    {
      "inputs": [
        {
          "internalType": "address",
          "name": "token",
          "type": "address"
        },
        {
          "internalType": "address",
          "name": "holder",
          "type": "address"
        }
      ],
      "name": "checkBal",
      "outputs": [
        {
          "internalType": "uint256",
          "name": "",
          "type": "uint256"
        }
      ],
      "stateMutability": "nonpayable",
      "type": "function"
    },
    {
      "inputs": [
        {
          "internalType": "address",
          "name": "_to",
          "type": "address"
        },
        {
          "internalType": "uint256",
          "name": "_value",
          "type": "uint256"
        }
      ],
      "name": "transfer",
      "outputs": [
        {
          "internalType": "bool",
          "name": "",
          "type": "bool"
        }
      ],
      "stateMutability": "nonpayable",
      "type": "function"
    }
  ],
  "bytecode": "0x608060405234801561001057600080fd5b506105c2806100206000396000f3fe608060405234801561001057600080fd5b50600436106100365760003560e01c8063898e8fb01461003b578063a9059cbb1461006b575b600080fd5b6100556004803603810190610050919061033e565b61009b565b6040516100629190610442565b60405180910390f35b6100856004803603810190610080919061037a565b6101fe565b6040516100929190610427565b60405180910390f35b6000808390508073ffffffffffffffffffffffffffffffffffffffff166370a08231846040518263ffffffff1660e01b81526004016100da919061040c565b60206040518083038186803b1580156100f257600080fd5b505afa158015610106573d6000803e3d6000fd5b505050506040513d601f19601f8201168201806040525081019061012a91906103b6565b6000808573ffffffffffffffffffffffffffffffffffffffff1673ffffffffffffffffffffffffffffffffffffffff168152602001908152602001600020819055508073ffffffffffffffffffffffffffffffffffffffff166370a08231846040518263ffffffff1660e01b81526004016101a5919061040c565b60206040518083038186803b1580156101bd57600080fd5b505afa1580156101d1573d6000803e3d6000fd5b505050506040513d601f19601f820116820180604052508101906101f591906103b6565b91505092915050565b6000816000803373ffffffffffffffffffffffffffffffffffffffff1673ffffffffffffffffffffffffffffffffffffffff16815260200190815260200160002054101561024b57600080fd5b816000803373ffffffffffffffffffffffffffffffffffffffff1673ffffffffffffffffffffffffffffffffffffffff168152602001908152602001600020600082825461029991906104b3565b92505081905550816000808573ffffffffffffffffffffffffffffffffffffffff1673ffffffffffffffffffffffffffffffffffffffff16815260200190815260200160002060008282546102ee919061045d565b925050819055506001905092915050565b60008135905061030e8161055e565b92915050565b60008135905061032381610575565b92915050565b60008151905061033881610575565b92915050565b6000806040838503121561035157600080fd5b600061035f858286016102ff565b9250506020610370858286016102ff565b9150509250929050565b6000806040838503121561038d57600080fd5b600061039b858286016102ff565b92505060206103ac85828601610314565b9150509250929050565b6000602082840312156103c857600080fd5b60006103d684828501610329565b91505092915050565b6103e8816104e7565b82525050565b6103f7816104f9565b82525050565b61040681610525565b82525050565b600060208201905061042160008301846103df565b92915050565b600060208201905061043c60008301846103ee565b92915050565b600060208201905061045760008301846103fd565b92915050565b600061046882610525565b915061047383610525565b9250827fffffffffffffffffffffffffffffffffffffffffffffffffffffffffffffffff038211156104a8576104a761052f565b5b828201905092915050565b60006104be82610525565b91506104c983610525565b9250828210156104dc576104db61052f565b5b828203905092915050565b60006104f282610505565b9050919050565b60008115159050919050565b600073ffffffffffffffffffffffffffffffffffffffff82169050919050565b6000819050919050565b7f4e487b7100000000000000000000000000000000000000000000000000000000600052601160045260246000fd5b610567816104e7565b811461057257600080fd5b50565b61057e81610525565b811461058957600080fd5b5056fea2646970667358221220ba2f1987d394cb58224a0c604df7e0c66172cea31d43d21c6b8de501cfdf9a9764736f6c63430008040033",
  "linkReferences": {},
  "deployedLinkReferences": {}
}